{
  "contractName": "Adoption",
  "abi": [
    {
      "constant": true,
      "inputs": [
        {
          "internalType": "uint256",
          "name": "",
          "type": "uint256"
        }
      ],
      "name": "adopters",
      "outputs": [
        {
          "internalType": "address",
          "name": "",
          "type": "address"
        }
      ],
      "payable": false,
      "stateMutability": "view",
      "type": "function"
    },
    {
      "constant": false,
      "inputs": [
        {
          "internalType": "uint256",
          "name": "petId",
          "type": "uint256"
        }
      ],
      "name": "adopt",
      "outputs": [
        {
          "internalType": "uint256",
          "name": "",
          "type": "uint256"
        }
      ],
      "payable": false,
      "stateMutability": "nonpayable",
      "type": "function"
    },
    {
      "constant": false,
      "inputs": [
        {
          "internalType": "uint256",
          "name": "petId",
          "type": "uint256"
        }
      ],
      "name": "returnPet",
      "outputs": [
        {
          "internalType": "uint256",
          "name": "",
          "type": "uint256"
        }
      ],
      "payable": false,
      "stateMutability": "nonpayable",
      "type": "function"
    },
    {
      "constant": true,
      "inputs": [],
      "name": "getAdopters",
      "outputs": [
        {
          "internalType": "address[16]",
          "name": "",
          "type": "address[16]"
        }
      ],
      "payable": false,
      "stateMutability": "view",
      "type": "function"
    }
  ],
  "bytecode": "0x608060405234801561001057600080fd5b50610377806100206000396000f3fe608060405234801561001057600080fd5b506004361061004c5760003560e01c80633de4eb171461005157806343ae80d3146100975780638588b2c514610105578063bdb92e8e14610147575b600080fd5b610059610189565b6040518082601060200280838360005b83811015610084578082015181840152602081019050610069565b5050505090500191505060405180910390f35b6100c3600480360360208110156100ad57600080fd5b810190808035906020019092919050505061020a565b604051808273ffffffffffffffffffffffffffffffffffffffff1673ffffffffffffffffffffffffffffffffffffffff16815260200191505060405180910390f35b6101316004803603602081101561011b57600080fd5b810190808035906020019092919050505061023d565b6040518082815260200191505060405180910390f35b6101736004803603602081101561015d57600080fd5b81019080803590602001909291905050506102ae565b6040518082815260200191505060405180910390f35b61019161031f565b6000601080602002604051908101604052809291908260108015610200576020028201915b8160009054906101000a900473ffffffffffffffffffffffffffffffffffffffff1673ffffffffffffffffffffffffffffffffffffffff16815260200190600101908083116101b6575b5050505050905090565b6000816010811061021757fe5b016000915054906101000a900473ffffffffffffffffffffffffffffffffffffffff1681565b60008082101580156102505750600f8211155b61025957600080fd5b336000836010811061026757fe5b0160006101000a81548173ffffffffffffffffffffffffffffffffffffffff021916908373ffffffffffffffffffffffffffffffffffffffff160217905550819050919050565b60008082101580156102c15750600f8211155b6102ca57600080fd5b60008083601081106102d857fe5b0160006101000a81548173ffffffffffffffffffffffffffffffffffffffff021916908373ffffffffffffffffffffffffffffffffffffffff160217905550819050919050565b60405180610200016040528060109060208202803883398082019150509050509056fea265627a7a723158200c91d1974dbda5ea88b3e4d9e2a64b6188215e68ef6dc4639184b52990c5862764736f6c63430005110032",
  "source": "pragma solidity ^0.5.0;\r\n\r\ncontract Adoption {\r\naddress[16] public adopters;\r\n// Adopting a pet\r\nfunction adopt(uint petId) public returns (uint) {\r\n  require(petId >= 0 && petId <= 15);\r\n\r\n  adopters[petId] = msg.sender;\r\n\r\n  return petId;\r\n}\r\n\r\n// Returning a pet\r\nfunction returnPet(uint petId) public returns (uint) {\r\n  require(petId >= 0 && petId <= 15);\r\n\r\n  adopters[petId] = address(0);\r\n\r\n  return petId;\r\n}\r\n\r\n// Retrieving the adopters\r\nfunction getAdopters() public view returns (address[16] memory) {\r\n  return adopters;\r\n}\r\n\r\n}",
  "sourcePath": "E:\\1050_Project\\pet-shop-enhancement\\contracts\\Adoption.sol",
  "compiler": {
    "name": "solc",
    "version": "0.5.17+commit.d19bba13.Emscripten.clang"
  },
  "schemaVersion": "3.4.16",
  "updatedAt": "2024-04-11T20:16:03.089Z",
  "devdoc": {
    "methods": {}
  },
  "userdoc": {
    "methods": {}
  }
}